:020000040800F2
:1000000000500020ED0500085D03000865030008AE
:100010006D030008750300087D0300080000000060
:100020000000000000000000000000008503000840
:1000300091030008000000009D030008A9030008C8
:1000400035060008350600083506000835060008A4
:100050003506000835060008350600083506000894
:100060003506000835060008350600083506000884
:100070003506000835060008350600083506000874
:100080003506000835060008350600083506000864
:100090003506000835060008350600083506000854
:1000A0003506000835060008350600083506000844
:1000B0003506000835060008350600083506000834
:1000C0003506000835060008350600083506000824
:1000D0003506000835060008350600083506000814
:1000E0003506000835060008350600080000000047
:1000F0000000000000000000000000000000000000
:0C01000000000000000000005FF808F1A3
:10010C0010B5054C237833B9044B13B10448AFF345
:10011C0000800123237010BD680000200000000047
:10012C009C1F000808B5034B1BB103490348AFF3F0
:10013C00008008BD000000006C0000209C1F00081F
:10014C0080B588B000AF07F1100300221A605A6026
:10015C009A60DA60234B9B69224A43F02003936137
:10016C00204B9B6903F02003FB60FB681D4B9B69D4
:10017C001C4A43F0040393611A4B9B6903F004037C
:10018C00BB60BB68174B9B69164A43F0080393612D
:10019C00144B9B6903F008037B607B6800220121F0
:1001AC00114800F048FD01233B6101237B610023D2
:1001BC00BB610223FB6107F1100319460A4800F0EA
:1001CC009FFB20233B6100237B610023BB6107F174
:1001DC0010031946054800F093FB00BF2037BD46BD
:1001EC0080BD00BF0010024000080140000C01401F
:1001FC0080B582B000AF00F019FA00F02BF8FFF7D1
:10020C009FFF00F077F920210E4800F0FDFC03461B
:10021C00FB71FB79002B08D1012201210A4800F067
:10022C000AFD0A4801F026FB07E0002201210648DE
:10023C0000F001FD064801F01DFB052000F058FA06
:10024C00E1E700BF000C014000080140B41F0008AA
:10025C00D41F000880B590B000AF07F11803282216
:10026C000021184601F0E6FB3B1D00221A605A6083
:10027C009A60DA601A610123BB614FF48033FB6131
:10028C0000233B620123BB6202237B634FF4803368
:10029C00BB634FF4E013FB6307F11803184600F03F
:1002AC00E3FC0346002B01D000F019F80F237B6010
:1002BC000223BB600023FB604FF480633B6100238F
:1002CC007B613B1D0221184600F050FF0346002BBA
:1002DC0001D000F004F800BF4037BD4680BD80B4AB
:1002EC0000AF72B600BF00BFFDE7000080B485B060
:1002FC0000AF154B9B69144A43F001039361124BF9
:10030C009B6903F00103BB60BB680F4BDB690E4AB2
:10031C0043F08053D3610C4BDB6903F080537B605B
:10032C007B680A4B5B68FB60FB6823F0E063FB6057
:10033C00FB6843F00073FB60044AFB68536000BF2A
:10034C001437BD4680BC70470010024000000140CD
:10035C0080B400AF00BFFDE780B400AF00BFFDE785
:10036C0080B400AF00BFFDE780B400AF00BFFDE775
:10037C0080B400AF00BFFDE780B400AF00BFBD4646
:10038C0080BC704780B400AF00BFBD4680BC7047D6
:10039C0080B400AF00BFBD4680BC704780B500AFD5
:1003AC0000F08AF900BF80BD80B586B000AFF86060
:1003BC00B9607A6000237B610AE0AFF300800146EC
:1003CC00BB685A1CBA60CAB21A707B6901337B6174
:1003DC007A697B689A42F0DB7B6818461837BD4611
:1003EC0080BD80B586B000AFF860B9607A6000233C
:1003FC007B6109E0BB685A1CBA601B781846AFF3E6
:10040C0000807B6901337B617A697B689A42F1DBFE
:10041C007B6818461837BD4680BD80B483B000AFEA
:10042C0078604FF0FF3318460C37BD4680BC7047E0
:10043C0080B483B000AF786039603B684FF40052F1
:10044C005A60002318460C37BD4680BC704780B4F8
:10045C0083B000AF7860012318460C37BD4680BCD2
:10046C00704780B485B000AFF860B9607A60002343
:10047C0018461437BD4680BC7047000080B586B066
:10048C0000AF7860144A154BD31A7B617B693B61D2
:10049C00134B1B68002B02D1114B124A1A60104BE4
:1004AC001A687B6813443A699A4207D201F010FB30
:1004BC0003460C221A604FF0FF3309E0084B1B680F
:1004CC00FB60074B1A687B681344054A1360FB6892
:1004DC0018461837BD4680BD0050002000040000AF
:1004EC00840000202002002080B400AF00BFBD4675
:1004FC0080BC704780B500AF114B124A1A60104B8C
:10050C004FF4E1325A600E4B00229A600C4B0022E1
:10051C00DA600B4B00221A61094B0C225A61084B12
:10052C0000229A61064B0022DA61054800F0ACFF0C
:10053C000346002B01D0FFF7D2FE00BF80BD00BFE9
:10054C00880000200038014080B588B000AF78608A
:10055C0007F1100300221A605A609A60DA607B6817
:10056C001B681C4A934231D11B4B9B691A4A43F4BA
:10057C0080439361184B9B6903F48043FB60FB68D9
:10058C00154B9B69144A43F004039361124B9B690E
:10059C0003F00403BB60BB684FF400733B610223A0
:1005AC007B610323FB6107F1100319460B4800F034
:1005BC00A7F94FF480633B6100237B610023BB618F
:1005CC0007F110031946054800F09AF900BF2037CF
:1005DC00BD4680BD003801400010024000080140BB
:1005EC00FFF782FF0B480C490C4A002302E0D45859
:1005FC00C4500433C4188C42F9D3094A094C002363
:10060C0001E013600432A242FBD301F067FAFFF75A
:10061C00EFFD70470000002068000020202000083B
:10062C006800002020020020FEE7000080B500AF2B
:10063C00084B1B68074A43F010031360032000F0BB
:10064C002BF90F2000F008F8FFF750FE0023184696
:10065C0080BD00BF0020024080B582B000AF786042
:10066C00124B1A68124B1B7819464FF47A73B3FB72
:10067C00F1F3B2FBF3F3184600F035F90346002B07
:10068C0001D001230EE07B680F2B0AD80022796879
:10069C004FF0FF3000F00BF9064A7B681360002323
:1006AC0000E0012318460837BD4680BD000000203D
:1006BC00080000200400002080B400AF054B1B781C
:1006CC001A46054B1B681344034A136000BFBD4612
:1006DC0080BC704708000020D000002080B400AF20
:1006EC00024B1B681846BD4680BC7047D0000020EA
:1006FC0080B584B000AF7860FFF7F0FFB8607B681E
:10070C00FB60FB68B3F1FF3F05D00A4B1B781A4620
:10071C00FB681344FB6000BFFFF7E0FF0246BB68B9
:10072C00D31AFA689A42F7D800BF00BF1037BD46FB
:10073C0080BD00BF0800002080B485B000AF786099
:10074C007B6803F00703FB600C4BDB68BB60BA688B
:10075C004FF6FF031340BB60FB681A02BB681343E0
:10076C0043F0BF6343F40033BB60044ABB68D360FF
:10077C0000BF1437BD4680BC704700BF00ED00E0E1
:10078C0080B400AF044BDB681B0A03F00703184668
:10079C00BD4680BC704700BF00ED00E080B483B064
:1007AC0000AF03463960FB7197F90730002B0ADB69
:1007BC003B68DAB20C4997F907301201D2B20B44FC
:1007CC0083F800230AE03B68DAB20849FB7903F0AE
:1007DC000F03043B1201D2B20B441A7600BF0C3744
:1007EC00BD4680BC704700BF00E100E000ED00E0BA
:1007FC0080B489B000AFF860B9607A60FB6803F030
:10080C000703FB61FB69C3F10703042B28BF042317
:10081C00BB61FB690433062B02D9FB69033B00E087
:10082C0000237B614FF0FF32BB6902FA03F3DA431A
:10083C00BB681A407B699A404FF0FF317B6901FA23
:10084C0003F3D9437B680B40134318462437BD464A
:10085C0080BC704780B582B000AF78607B68013B8C
:10086C00B3F1807F01D301230FE00A4A7B68013B7F
:10087C0053600F214FF0FF30FFF790FF054B002224
:10088C009A60044B07221A60002318460837BD46AD
:10089C0080BD00BF10E000E080B582B000AF786092
:1008AC007868FFF749FF00BF0837BD4680BD80B5AB
:1008BC0086B000AF0346B9607A60FB7300237B619E
:1008CC00FFF75EFF78617A68B9687869FFF790FF87
:1008DC00024697F90F3011461846FFF75FFF00BF2D
:1008EC001837BD4680BD80B582B000AF786078689F
:1008FC00FFF7B0FF034618460837BD4680BD000021
:10090C0080B48BB000AF7860396000237B62002329
:10091C003B6269E101227B6A02FA03F3FB613B68EB
:10092C001B68FA691340BB61BA69FB699A4240F0D3
:10093C0058813B685B689A4A93425ED0984A9342CE
:10094C0075D8984A934258D0964A93426FD8964A93
:10095C00934252D0944A934269D8944A93424CD0D1
:10096C00924A934263D8924A934246D0904A934219
:10097C005DD8122B2AD8122B59D801A252F823F089
:10098C00070A0008E1090008F3090008350A000805
:10099C003B0A00083B0A00083B0A00083B0A000817
:1009AC003B0A00083B0A00083B0A00083B0A000807
:1009BC003B0A00083B0A00083B0A00083B0A0008F7
:1009CC003B0A0008E9090008FD090008794A93422E
:1009DC0013D02CE03B68DB683B6229E03B68DB68AA
:1009EC0004333B6224E03B68DB6808333B621FE066
:1009FC003B68DB680C333B621AE03B689B68002B5E
:100A0C0002D104233B6213E03B689B68012B05D1A8
:100A1C0008233B627B68FA691A6109E008233B6290
:100A2C007B68FA695A6103E000233B6200E000BF77
:100A3C00BB69FF2B01D87B6801E07B6804337B61C9
:100A4C00BB69FF2B02D87B6A9B0002E07B6A083BE8
:100A5C009B003B617B691A680F213B6901FA03F328
:100A6C00DB431A40396A3B6901FA03F31A437B6989
:100A7C001A603B685B6803F08053002B00F0B18078
:100A8C004D4B9B694C4A43F0010393614A4B9B6964
:100A9C0003F00103BB60BB68484A7B6A9B080233C6
:100AAC0052F82330FB607B6A03F003039B000F2298
:100ABC0002FA03F3DB43FA681340FB607B68404A9D
:100ACC00934213D07B683F4A93420DD07B683E4AD9
:100ADC00934207D07B683D4A934201D1032306E041
:100AEC00042304E0022302E0012300E000237A6ADD
:100AFC0002F0030292009340FA681343FB602F4903
:100B0C007B6A9B080233FA6841F823203B685B68D8
:100B1C0003F48013002B06D02D4B9A682C49BB692B
:100B2C0013438B6006E02A4B9A68BB69DB43284968
:100B3C0013408B603B685B6803F40013002B06D0FA
:100B4C00234BDA682249BB691343CB6006E0204B88
:100B5C00DA68BB69DB431E491340CB603B685B68BA
:100B6C0003F40033002B06D0194B5A681849BB69A3
:100B7C0013434B6006E0164B5A68BB69DB431449C0
:100B8C0013404B603B685B6803F48033002B21D02F
:100B9C000F4B1A680E49BB6913430B6021E000BF71
:100BAC000000321000003110000022100000211053
:100BBC000000121000001110001002400000014053
:100BCC0000080140000C01400010014000140140DD
:100BDC00000401400B4B1A68BB69DB430949134005
:100BEC000B607B6A01337B623B681A687B6A22FA72
:100BFC0003F3002B7FF48EAE00BF00BF2C37BD4635
:100C0C0080BC70470004014080B485B000AF7860B0
:100C1C000B467B807B689A687B881340002B02D044
:100C2C000123FB7301E00023FB73FB7B1846143795
:100C3C00BD4680BC704780B483B000AF78600B4673
:100C4C007B8013467B707B78002B03D07A887B6883
:100C5C001A6103E07B881A047B681A6100BF0C37A9
:100C6C00BD4680BC7047000080B586B000AF786090
:100C7C007B68002B01D1012372E27B681B6803F0B7
:100C8C000103002B00F08780924B5B6803F00C0390
:100C9C00042B0CD08F4B5B6803F00C03082B12D188
:100CAC008C4B5B6803F48033B3F5803F0BD1894BDD
:100CBC001B6803F40033002B6CD07B685B68002B43
:100CCC0068D101234CE27B685B68B3F5803F06D1A9
:100CDC00804B1B687F4A43F4803313602EE07B68A3
:100CEC005B68002B0CD17B4B1B687A4A23F4803356
:100CFC001360784B1B68774A23F4802313601DE044
:100D0C007B685B68B3F5A02F0CD1724B1B68714AE2
:100D1C0043F4802313606F4B1B686E4A43F480339B
:100D2C0013600BE06B4B1B686A4A23F4803313602F
:100D3C00684B1B68674A23F4802313607B685B68ED
:100D4C00002B13D0FFF7CAFC386108E0FFF7C6FC94
:100D5C0002463B69D31A642B01D9032300E25D4B95
:100D6C001B6803F40033002BF0D014E0FFF7B6FC43
:100D7C00386108E0FFF7B2FC02463B69D31A642BDA
:100D8C0001D90323ECE1534B1B6803F40033002B14
:100D9C00F0D100E000BF7B681B6803F00203002B5E
:100DAC0063D04C4B5B6803F00C03002B0BD0494B0E
:100DBC005B6803F00C03082B1CD1464B5B6803F4F7
:100DCC008033002B16D1434B1B6803F00203002B1E
:100DDC0005D07B681B69012B01D00123C0E13D4B81
:100DEC001B6823F0F8027B685B69DB00394913430D
:100DFC000B603AE07B681B69002B20D0364B01223C
:100E0C001A60FFF76BFC386108E0FFF767FC0246DD
:100E1C003B69D31A022B01D90323A1E12D4B1B688B
:100E2C0003F00203002BF0D02A4B1B6823F0F802CE
:100E3C007B685B69DB00274913430B6015E0264B8D
:100E4C0000221A60FFF74AFC386108E0FFF746FC05
:100E5C0002463B69D31A022B01D9032380E11D4BB7
:100E6C001B6803F00203002BF0D17B681B6803F0B6
:100E7C000803002B3AD07B689B69002B19D0174BC9
:100E8C0001221A60FFF72AFC386108E0FFF726FC04
:100E9C0002463B69D31A022B01D9032360E10D4BA7
:100EAC005B6A03F00203002BF0D0012000F0CEFAB5
:100EBC001CE00A4B00221A60FFF710FC38610FE0AF
:100ECC00FFF70CFC02463B69D31A022B08D903230B
:100EDC0046E100BF00100240000042428004424242
:100EEC00924B5B6A03F00203002BE9D17B681B6811
:100EFC0003F00403002B00F0A6800023FB758B4B42
:100F0C00DB6903F08053002B0DD1884BDB69874ADA
:100F1C0043F08053D361854BDB6903F08053BB6096
:100F2C00BB680123FB75824B1B6803F48073002B99
:100F3C0018D17F4B1B687E4A43F480731360FFF714
:100F4C00CDFB386108E0FFF7C9FB02463B69D31AB9
:100F5C00642B01D9032303E1754B1B6803F48073E5
:100F6C00002BF0D07B68DB68012B06D16F4B1B6A22
:100F7C006E4A43F0010313622DE07B68DB68002BA3
:100F8C000CD16A4B1B6A694A23F001031362674B4D
:100F9C001B6A664A23F0040313621CE07B68DB685F
:100FAC00052B0CD1614B1B6A604A43F0040313629E
:100FBC005E4B1B6A5D4A43F0010313620BE05B4B13
:100FCC001B6A5A4A23F001031362584B1B6A574A97
:100FDC0023F0040313627B68DB68002B15D0FFF74A
:100FEC007DFB38610AE0FFF779FB02463B69D31AB7
:100FFC0041F28832934201D90323B1E04B4B1B6A77
:10100C0003F00203002BEED014E0FFF767FB38610E
:10101C000AE0FFF763FB02463B69D31A41F28832C0
:10102C00934201D903239BE0404B1B6A03F002035C
:10103C00002BEED1FB7D012B05D13C4BDB693B4AF0
:10104C0023F08053D3617B68DB69002B00F0878031
:10105C00364B5B6803F00C03082B61D07B68DB69B3
:10106C00022B46D1334B00221A60FFF737FB386155
:10107C0008E0FFF733FB02463B69D31A022B01D978
:10108C0003236DE0294B1B6803F00073002BF0D198
:10109C007B681B6AB3F5803F08D1244B5B6823F453
:1010AC0000327B689B68214913434B601F4B5B6884
:1010BC0023F474127B68196A7B685B6A0B431B49C7
:1010CC0013434B601B4B01221A60FFF707FB38617F
:1010DC0008E0FFF703FB02463B69D31A022B01D948
:1010EC0003233DE0114B1B6803F00073002BF0D081
:1010FC0035E0104B00221A60FFF7F0FA386108E077
:10110C00FFF7ECFA02463B69D31A022B01D90323F1
:10111C0026E0064B1B6803F00073002BF0D11EE099
:10112C007B68DB69012B07D1012319E00010024019
:10113C0000700040600042420B4B5B68FB60FB6838
:10114C0003F480327B681B6A9A4206D1FB6803F475
:10115C0070127B685B6A9A4201D0012300E0002385
:10116C0018461837BD4680BD0010024080B584B0CB
:10117C0000AF786039607B68002B01D10123D0E08F
:10118C006A4B1B6803F007033A689A4210D9674B05
:10119C001B6823F0070265493B6813430B60634BE4
:1011AC001B6803F007033A689A4201D00123B8E0A8
:1011BC007B681B6803F00203002B20D07B681B6844
:1011CC0003F00403002B05D0594B5B68584A43F4D9
:1011DC00E06353607B681B6803F00803002B05D0A9
:1011EC00534B5B68524A43F460535360504B5B68FB
:1011FC0023F0F0027B689B684D4913434B607B687E
:10120C001B6803F00103002B40D07B685B68012B4B
:10121C0007D1474B1B6803F40033002B15D1012376
:10122C007FE07B685B68022B07D1414B1B6803F0A6
:10123C000073002B09D1012373E03D4B1B6803F0B5
:10124C000203002B01D101236BE0394B5B6823F0C7
:10125C0003027B685B68364913434B60FFF73EFA29
:10126C00F8600AE0FFF73AFA0246FB68D31A41F23B
:10127C008832934201D9032353E02D4B5B6803F072
:10128C000C027B685B689B009A42EBD1274B1B6876
:10129C0003F007033A689A4210D2244B1B6823F0E0
:1012AC00070222493B6813430B60204B1B6803F079
:1012BC0007033A689A4201D0012332E07B681B682D
:1012CC0003F00403002B08D0194B5B6823F4E06295
:1012DC007B68DB68164913434B607B681B6803F023
:1012EC000803002B09D0124B5B6823F460527B6817
:1012FC001B69DB000E4913434B6000F021F80246DA
:10130C000B4B5B681B0903F00F030A49CB5C22FAF9
:10131C0003F3094A1360094B1B681846FFF79CF945
:10132C00002318461037BD4680BD00BF0020024088
:10133C0000100240EC1F00080000002004000020F8
:10134C0080B487B000AF0023FB600023BB60002398
:10135C007B6100237B6000233B611E4B5B68FB6061
:10136C00FB6803F00C03042B02D0082B03D027E0FE
:10137C00194B3B6127E0FB689B0C03F00F03174AEA
:10138C00D35C7B60FB6803F48033002B10D0114BD3
:10139C005B685B0C03F00103114AD35CBB607B6898
:1013AC000D4A03FB02F2BB68B2FBF3F37B6104E072
:1013BC007B680C4A02FB03F37B617B693B6102E0B7
:1013CC00054B3B6100BF3B6918461C37BD4680BCD2
:1013DC00704700BF0010024000127A000420000881
:1013EC001420000800093D0080B400AF024B1B68BC
:1013FC001846BD4680BC70470000002080B500AF89
:10140C00FFF7F2FF0246054B5B681B0A03F007036C
:10141C000349CB5C22FA03F3184680BD001002404E
:10142C00FC1F000880B500AFFFF7DEFF0246054B3E
:10143C005B68DB0A03F007030349CB5C22FA03F376
:10144C00184680BD00100240FC1F000880B485B017
:10145C0000AF78600A4B1B680A4AA2FB03235B0AA5
:10146C007A6802FB03F3FB6000BFFB685A1EFA604C
:10147C00002BF9D100BF00BF1437BD4680BC7047AC
:10148C0000000020D34D621080B582B000AF7860B0
:10149C007B68002B01D1012342E07B6893F841303B
:1014AC00DBB2002B06D17B68002283F840207868E1
:1014BC00FFF74AF87B68242283F841207B681B687D
:1014CC00DA687B681B6822F40052DA60786800F0F6
:1014DC002BF87B681B681A697B681B6822F49042A6
:1014EC001A617B681B685A697B681B6822F02A02A8
:1014FC005A617B681B68DA687B681B6842F400528F
:10150C00DA607B6800225A647B68202283F84120D1
:10151C007B68202283F842207B6800225A630023D8
:10152C0018460837BD4680BD80B584B000AF7860E2
:10153C007B681B681B6923F440517B68DA687B6805
:10154C001B680A431A617B689A687B681B691A439B
:10155C007B685B691343BB607B681B68DB6823F4A7
:10156C00B05323F00C037A681268B9680B43D3604C
:10157C007B681B685B6923F440717B689A697B68A4
:10158C001B680A435A617B681B682C4A934203D13F
:10159C00FFF748FFF86002E0FFF730FFF860FA68E9
:1015AC0013469B0013449A001A447B685B689B00AB
:1015BC00B2FBF3F3224AA2FB03235B091901FA687D
:1015CC0013469B0013449A001A447B685B689B008B
:1015DC00B2FBF3F21A4BA3FB02035B09642000FB82
:1015EC0003F3D31A1B013233154AA2FB03235B0905
:1015FC0003F0F0031944FA6813469B0013449A0055
:10160C001A447B685B689B00B2FBF3F20C4BA3FBA8
:10161C0002035B09642000FB03F3D31A1B01323372
:10162C00074AA2FB03235B0903F00F027B681B68CC
:10163C000A449A6000BF1037BD4680BD0038014097
:10164C001F85EB51002310B50446C0E90033C0E9F7
:10165C000433836081814366C28183611946082209
:10166C005C3000F0E7F90D4B246263620C4BA36213
:10167C000C4BE3620C4B23630C4B9C4206D003F1E6
:10168C006802944202D0D0339C4205D104F1580038
:10169C00BDE8104000F046BA10BD00BF911800081C
:1016AC00B3180008EB1800080F190008D40000202C
:1016BC00024A0349034800F069B800BF0C0000203F
:1016CC00251E00081C00002041680C4B10B59942E7
:1016DC00044601D000F0A0FBA168094B994202D04E
:1016EC00204600F099FBE168064B994204D0204655
:1016FC00BDE8104000F090BB10BD00BFD40000202E
:10170C003C010020A401002010B50B4B0B4C0C4AE3
:10171C0020461A6004210022FFF794FF04F16800B0
:10172C0001220921FFF78EFF04F1D0000222BDE84F
:10173C0010401221FFF786BF0C020020D4000020BD
:10174C00BD160008014800F0EEB900BF15020020DC
:10175C00014800F0E9B900BF1502002010B504469D
:10176C00FFF7F0FF236A1BB1BDE81040FFF7F0BF95
:10177C00044B2362044B1B68002BF5D1FFF7C4FF0D
:10178C00F2E700BFD51600080C0200202DE9F84343
:10179C000746884614460026D4E90195B9F101099B
:1017AC0005D52468002CF7D13046BDE8F883AB8909
:1017BC00012B07D9B5F90E30013303D02946384631
:1017CC00C04706436835E9E7036A70B505460E461F
:1017DC0084680BB9FFF7C2FF636EDB0705D4A389DE
:1017EC00980502D4A06D00F09EF9A389190702D5C3
:1017FC002369002B35D12146284600F0C5F880B36B
:10180C004FF0FF35636EDA0705D4A3899B0502D42C
:10181C00A06D00F089F9284670BD002B04DAA2698E
:10182C009A4217DC0A2915D023685A1C22601970B9
:10183C00A36816F8011F013BA3600029EDD1002B12
:10184C0011DA22460A21284600F05FF80130D7D081
:10185C000A25D7E72246284600F057F80130E7D191
:10186C00CEE7013EE4E723685A1C22600A221A7074
:10187C00EEE70000024B01461868FFF7A5BF00BF5A
:10188C001800002010B50C46B1F90E1000F0FCF851
:10189C000028ABBF636DA3891B1823F48053ACBF26
:1018AC006365A38110BD2DE9F0411F468B89054668
:1018BC00DB050C46164605D502230022B1F90E10A5
:1018CC0000F0D0F8A389324623F48053A381284634
:1018DC003B46B4F90E10BDE8F04100F0E7B810B586
:1018EC000C46B1F90E1000F0BDF8431CA38915BFCE
:1018FC00606523F4805343F48053A38118BFA38104
:10190C0010BDB1F90E1000F09DB8F8B50E46144696
:10191C00054618B1036A0BB9FFF720FFA369A36052
:10192C00A3891A0701D5236943B92146284600F03B
:10193C002BF818B14FF0FF373846F8BD23682269F1
:10194C00F6B2981A63693746834205DC214628466D
:10195C0000F062FA0028EDD1A368013BA360236874
:10196C005A1C22601E706269431C9A4204D0A389DF
:10197C00DB07E1D50A2EDFD12146284600F04CFAD0
:10198C000028D9D0D6E7000038B5294B0546186891
:10199C000C4618B1036A0BB9FFF7E0FEB4F90C3032
:1019AC00190722D4DA0607D409222A6043F040032F
:1019BC004FF0FF30A38133E0580712D5616B41B172
:1019CC0004F14403994202D0284600F0AFF80023FA
:1019DC006363A38923F02403A38100236360236939
:1019EC002360A38943F00803A38123694BB9A3891E
:1019FC0003F42073B3F5007F03D02146284600F092
:101A0C0058FAB4F90C3013F001020AD00022A2608B
:101A1C0062695242A261226942B913F08000C5D1B9
:101A2C0038BD990758BF6269A260F4E70020F7E758
:101A3C001800002003460244934200D1704703F87B
:101A4C00011BF9E738B50023054D044608462B6009
:101A5C00FEF7E3FC431C02D12B6803B1236038BDB5
:101A6C001002002038B50446084611460022054DE8
:101A7C002A601A46FEF7F5FC431C02D12B6803B111
:101A8C00236038BD1002002038B5044608461146C4
:101A9C000022054D2A601A46FEF786FC431C02D133
:101AAC002B6803B1236038BD1002002038B5044602
:101ABC00084611460022054D2A601A46FEF791FC95
:101ACC00431C02D12B6803B1236038BD10020020E7
:101ADC00014B1868704700BF1800002070B5002635
:101AEC000C4D0D4C641BA410A64209D100F050FA09
:101AFC0000260A4D0A4C641BA410A64205D170BDE9
:101B0C0055F8043B98470136EEE755F8043B9847E7
:101B1C000136F2E7182000081820000818200008E9
:101B2C001C200008704770477047000038B5054608
:101B3C00002940D051F8043C0C1F002BB8BFE4180E
:101B4C0000F0DEF81C4A136833B963601460284651
:101B5C00BDE8384000F0DAB8A34208D92068211853
:101B6C008B4201BF19685B6809182160EDE71A46C2
:101B7C005B680BB1A342FAD911685018A0420BD183
:101B8C0020680144501883421160E0D118685B68EA
:101B9C00084410605360DAE702D90C232B60D6E7B7
:101BAC00206821188B4201BF19685B6809182160F5
:101BBC0063605460CBE738BD1C02002070B50F4E3B
:101BCC000C463168054611B900F0D2F93060214657
:101BDC00284600F0CDF9431C03D14FF0FF342046CA
:101BEC0070BDC41C24F00304A042F8D0211A28466E
:101BFC0000F0BEF90130F2D1EFE700BF180200206F
:101C0C002DE9F843CD1C25F0030508350C2D38BF04
:101C1C000C25002D064601DBA94204D90C233360A8
:101C2C000020BDE8F883DFF8D48000F069F8D8F81C
:101C3C0000301C4644BB29463046FFF7BFFF431C0F
:101C4C00044658D1D8F800402746002F43D1002C29
:101C5C004BD023683946304604EB030900F088F971
:101C6C00814542D1216830466D1A2946FFF7A6FFFF
:101C7C0001303AD023682B442360D8F800305A68DE
:101C8C0062BBC8F800700FE02268521B20D40B2AEC
:101C9C0017D96119A342256018BF5960636808BF42
:101CAC00C8F8001062514B60304600F02FF804F178
:101CBC000B00231D20F00700C21A1CBF1B1AA350D7
:101CCC00AFE76268A3420CBFC8F800205A60EBE78C
:101CDC0023466468AEE73C467F68B6E71A465B6805
:101CEC00A342FBD100235360DEE70C233046336064
:101CFC0000F00CF894E70560D6E700BF1C0200204A
:101D0C000148FFF710BF00BF140200200148FFF785
:101D1C000BBF00BF14020020B1F90C20F8B5160758
:101D2C0005460C4654D44B68002B02DC0B6C002B84
:101D3C0048DDE66A002E45D0002312F480522F684D
:101D4C00216A2B6030D0626DA389590705D5636871
:101D5C00D21A636B0BB1236CD21A00232846E66AA5
:101D6C00216AB047431CA38906D129681D292BD8A9
:101D7C00284A0A41D60727D4002262602269D90476
:101D8C00226004D5421C01D12B6803B96065616BDC
:101D9C002F60B9B104F14403994202D02846FFF7F1
:101DAC00C5FE002363630DE001232846B0470246BD
:101DBC00501CC9D12B68002BC6D01D2B01D0162B63
:101DCC001DD12F60002021E043F040031BB21AE02C
:101DDC000F69002FF6D0930718BF00230E6808BFB9
:101DEC004B69F61B0F608B60002EEBDD33463A46D9
:101DFC002846216AD4F828C0E047002807DCB4F94B
:101E0C000C3043F040034FF0FF30A381F8BD074482
:101E1C00361AE9E7FEFFBFDF38B50B6905460C46FD
:101E2C0013B90025284638BD18B1036A0BB9FFF762
:101E3C0095FCB4F90C30002BF3D0626ED00704D4AF
:101E4C00990502D4A06DFFF76EFE28462146FFF7D8
:101E5C0063FF636E0546DA07E4D4A3899B05E1D4DE
:101E6C00A06DFFF761FEDDE770B50C46B1F90E1001
:101E7C00154600291E4696B00CDAA389002113F0F2
:101E8C00800F14BF40234FF48063002031602B601F
:101E9C0016B070BD6A4600F049F80028EDDB0199D8
:101EAC0001F47041A1F50053594259414FF480633C
:101EBC00EBE78B89F7B59D0706460C4607D504F171
:101ECC004703236023610123636103B0F0BD6A46BD
:101EDC0001ABFFF7C9FF009F054639463046FFF7B7
:101EEC008FFE48B9B4F90C309A05EED423F00303F5
:101EFC0043F00203A381E2E7A389C4E9040743F09A
:101F0C008003A381019B20605BB13046B4F90E10B5
:101F1C0000F01EF828B1A38923F0030343F001035A
:101F2C00A381A3891D43A581CFE7000038B5002309
:101F3C00064D0446084611462B60FEF779FA431C01
:101F4C0002D12B6803B1236038BD00BF1002002002
:101F5C0038B50023054D044608462B60FEF777FA8A
:101F6C00431C02D12B6803B1236038BD1002002042
:101F7C0038B50023054D044608462B60FEF77EFA63
:101F8C00431C02D12B6803B1236038BD1002002022
:101F9C00F8B500BFF8BC08BC9E467047F8B500BF4A
:081FAC00F8BC08BC9E4670471A
:101FB4004952205472696767657265643A204F62BA
:101FC4006A656374206465746563746564210D00D7
:101FD400495220436C6561723A204E6F206F626AE9
:101FE4006563742E0D000000000000000000000076
:101FF40001020304060708090000000001020304AB
:1020040002030405060708090A0B0C0D0E0F101035
:0420140001020000C5
:04201800310100088A
:04201C000D010008AA
:1020200000127A0010000000010000000000000013
:1020300003000000D40000201C000020000000006D
:10204000D40000203C010020A4010020000000007A
:102050000000000000000000000000000000000080
:102060000000000000000000000000000000000070
:102070000000000000000000000000000000000060
:08208000000000000000000058
:04000005080005EDFD
:00000001FF
